:020000040800F2
:10000000700A0020550200089302000895020008BB
:1000100097020008990200089B02000800000000F7
:100020000000000000000000000000009D02000829
:100030009F02000800000000A1020008A3020008BF
:10004000A5020008A5020008A5020008A5020008F4
:10005000A5020008A5020008A5020008A5020008E4
:10006000A5020008A5020008A5020008A5020008D4
:10007000A5020008A5020008A5020008A5020008C4
:10008000A5020008A5020008A5020008A5020008B4
:10009000A5020008A5020008A5020008A5020008A4
:1000A000A5020008A5020008A5020008A502000894
:1000B000A5020008A5020008A5020008AD0400087A
:1000C000A9040008A5020008A5020008A50200086E
:1000D000A5020008A5020008A5020008A502000864
:1000E000A5020008A5020008A5020008A502000854
:1000F000A5020008A5020008A5020008A502000844
:10010000A5020008A5020008A5020008A502000833
:10011000A5020008A5020008A5020008A502000823
:10012000A5020008A5020008A5020008A502000813
:10013000A5020008A5020008A5020008A502000803
:10014000A5020008A5020008A5020008A5020008F3
:10015000A5020008A5020008A5020008A5020008E3
:10016000A5020008A5020008A5020008A5020008D3
:10017000A5020008A5020008A50200080000000072
:10018000A5020008A502000800F002F800F052F8ED
:1001900014A696E8000CB244B344DA4501D100F04D
:1001A00049F8BAE80F000FA696E83000A5EB040561
:1001B00004EB0607AAEB0704A7F101074FEA1515A0
:1001C0004FEA3414A4F10104AC4201D300F032F838
:1001D00013F0010F18BFFB1A43F0010300F001F800
:1001E000DBE71847801A0000A01A0000103A24BF6D
:1001F00078C878C1FAD8520724BF30C830C144BF8C
:1002000004680C6070470000704700000023002461
:1002100000250026103A28BF78C1FBD8520728BF16
:1002200030C148BF0B6070471FB500F057FE1FBDBF
:1002300010B510BD00F002F91146FFF7F5FF00F010
:1002400095FB00F020F903B4FFF7F2FF03BC00F0C8
:1002500023F9000017481849184B99423CBF50F841
:10026000042B41F8042BF8D3154B16494FF000022C
:100270008B4238BF43F8042BFAD3DFF84C000168F7
:1002800041F470010160BFF34F8FBFF36F8F0F48D0
:100290000047FEE7FEE7FEE7FEE7FEE7FEE7FEE7D4
:1002A000FEE7FEE7FEE7000009480A490A4A0B4B51
:1002B00070470000881C0008000000200800002093
:1002C00008000020700A002088ED00E08901000885
:1002D00070040020700A00207006002070060020C4
:1002E000032A40F2308010F0030C00F0158011F862
:1002F000013BBCF1020F624498BF11F801CB00F83A
:10030000013B38BF11F8013BA2F1040298BF00F88D
:1003100001CB38BF00F8013B11F0030300F0578018
:10032000083AC0F0088051F8043B083A51F804CB71
:10033000A0E80810F5E7121D5CBF51F8043B40F837
:10034000043BAFF30080D20724BF11F8013B11F842
:1003500001CB48BF11F8012B24BF00F8013B00F886
:1003600001CB48BF00F8012B704702F0FF0343EABE
:10037000032242EA024200F002B84FF0000200B548
:10038000134694469646203922BFA0E80C50A0E8B8
:100390000C50B1F12001BFF4F7AF090728BFA0E866
:1003A0000C5048BF0CC05DF804EB890028BF40F832
:1003B000042B08BF704748BF20F8022B11F0804F74
:1003C00018BF00F8012B704770477047704710B591
:1003D000203AC0F00B80B1E81850A0E81850B1E8FE
:1003E0001850A0E81850203ABFF4F5AF5FEA027C3D
:1003F00024BFB1E81850A0E8185044BF18C918C06D
:10040000BDE810405FEA827C24BF51F8043B40F80D
:10041000043B08BF7047D20728BF31F8023B48BFF2
:1004200011F8012B28BF20F8023B48BF00F8012B30
:100430007047000000487047080000207546FFF72D
:10044000F9FFAE4605006946534620F00700854691
:1004500018B020B5FFF728FFBDE820404FF0000698
:100460004FF000074FF000084FF0000BAC46ACE82F
:10047000C009ACE8C009ACE8C009ACE8C00921F08B
:1004800007018D46704710B50446AFF30080204643
:10049000BDE81040FFF7D7BE01491820ABBEFEE70C
:1004A00026000200704700007047000070470000FF
:1004B00041F24C00C4F20200016841F00201016007
:1004C00040F20040C4F60000016821F47021016090
:1004D000016841F420210160416A21F0FF0141627D
:1004E000416A41F044014162816821F470218160D8
:1004F000816841F4A0218160C16821F47021C1604C
:10050000C16841F4A021C160416841F4C0714160FB
:100510007047000010B545F20041C4F20001884266
:100520001DD045F60041C4F2000188420ED045F6C8
:100530000001C4F2000188422ED16FF4800C4FF408
:10054000804E6FF440414FF4800310E06FF4000CD4
:100550004FF4803E6FF440314FF4000307E06FF436
:10056000001C4FF4805E6FF440514FF4001341F2D1
:100570003802C4F20202146A1C431462146D214052
:100580001165116D41EA0E01116511681943116081
:10059000116801EA0C011160016821F0010101609C
:1005A000016821F480510160016821F470610160EB
:1005B000016841F08001016000210161016921F0C1
:1005C00070410161016941F0E0410161016941F05F
:1005D0000E010161016941F460610161016941F449
:1005E00080110161016941F400310161816821F4E8
:1005F0000041816048F252018160016821F40031BC
:100600000160816821F400418160416821F400614A
:100610004160416841F000714160416841F400412E
:100620004160016841F00101016010BD002A4FF0F6
:10063000FF0C18BF002B03D14FFA8CF0704700BF9E
:10064000D0F818C05FEA0C4CFAD480B5D0F804C0DA
:1006500049F6000ECFF6004E0CEA0E0C41EA0341BB
:10066000614401F500514160BDE8804063B14FF045
:10067000000C00BF8169C907FCD012F80C100CF106
:10068000010C9C458162F5D1816949065CBF816995
:100690005FEAC161F8D58169C90642BF4FF0FF0C1E
:1006A0004FFA8CF07047416841F48041416000BFCF
:1006B00081698906FCD54FF0000C4FFA8CF0704729
:1006C00041F24C00C4F20200016841F004010160F3
:1006D00040F60C00C4F6000050F80C1C21F0FF019D
:1006E00040F80C1C50F80C1C41F0550140F80C1C53
:1006F000816841F00F01816050F80C1C21F44071B9
:1007000040F80C1C50F80C1C21F4401140F80C1C53
:1007100050F80C1C21F4400140F80C1C50F80C1C43
:1007200021F0407140F80C1C016821F44071016017
:10073000016841F480710160016821F44011016099
:10074000016841F480110160016821F440010160F9
:10075000016841F480010160016821F0407101608D
:10076000016841F0807101607047000042F20001B1
:10077000C4F20201086820F0070008600A6841F22C
:10078000000042F00202C4F202000A60016841F473
:100790008071016001684905FCD5416821F0F8517C
:1007A0004160416841F080514160016821F08071F1
:1007B000016000BF01688901FCD4C168142221F0E6
:1007C0000301C160C16841F00201C160C16862F308
:1007D0000E21C160C168012262F30611C160C168C7
:1007E00021F0C061C160C16841F08071C1600168E1
:1007F00041F08071016000BF01688901FCD581680A
:1008000021F003018160816841F00301816000BF34
:10081000816801F00C010C29FAD1816821F0F00106
:100820008160816821F4E0618160816821F4605118
:100830008160016821F08061016000BF01684901A9
:10084000FCD4016921F4FE410161016941F4C05108
:100850000161016941F400310161016941F48031B4
:100860000161016841F08061016000BF01684901D8
:10087000FCD5D0F8881021F44001C0F88810016E32
:1008800041F400110166704781B0002100914FF4DE
:100890007A61009A4843824206DA00BF009901312A
:1008A000009100998142F9DB01B070472DE9F041D8
:1008B00081B040F6140041F6524CC4F600004FF0EF
:1008C000000E4FF00108C0F6000C0023002100BF0D
:1008D000056808FA01F645F00F0505600568B5439F
:1008E0000560CDF800E002E0009D01350095009D17
:1008F000B5F5FA5FF8DB50F8042C50F8047C50F89A
:10090000046C50F8045CD20602D40CEB810411E0B4
:100910007A0503D40CEB8102541C0BE0320503D49E
:100920000CEB8102941C05E0EA0410D40CEB81026C
:10093000D41C00BF2478002565B1022901F1010112
:100940004FF0000388BF01230429C1D102E0012533
:10095000002DF2D1D90704D00168FF2441F00F0126
:100960000160E0B201B0BDE8F081000086B0FFF7A1
:10097000FDFEFFF79DFD45F20040C4F20000FFF7C9
:10098000C9FD00F04FF80020002600F03DF8FFF709
:1009900097FE40F200094FF02030FF2501AC4FF0E8
:1009A0002008C2F200098DF81460CDE90100CDE9FC
:1009B000030004E02F460A20FFF766FF3D46FFF7DD
:1009C00075FF0746E8B28742F4D0FF2FF3D02A2FF5
:1009D00005D1012EA4BF013E04F8068003E00F2ECE
:1009E000DCBFA7550136002000F00EF802200021E0
:1009F00000F078F9D9E900122046012300F054FAFA
:100A000000F07CF9D7E7000080B50246002840F2EC
:100A10007000C2F200004FF4806118BFFF22FFF7A0
:100A2000A4FC80BDF0B583B000250195019948F282
:100A3000A060C0F20100814206D200BF01990131DD
:100A4000019101998142F9D345F2004440F26C06CC
:100A50004FF42E40C4F20004C2F20006ADF80A00C2
:100A60000DF10A022046782102233570FFF7DEFDE2
:100A70004FF400570DF10A02204678210223ADF809
:100A80000A70FFF7D3FD0DF10A02204678210223F8
:100A9000ADF80A50FFF7CAFD4FF43040ADF80A0038
:100AA0000DF10A02204678210223FFF7BFFD4FF423
:100AB0004840ADF80A000DF10A02204678210223D1
:100AC000FFF7B4FD0DF10A02204678210223ADF8AC
:100AD0000A50FFF7ABFD4FF48050ADF80A000DF15E
:100AE0000A02204678210223FFF7A0FD4FF4804040
:100AF000ADF80A000DF10A02204678210223FFF723
:100B000095FD4FF40140ADF80A000DF10A022046B0
:100B100078210223FFF78AFD4FF47F40ADF80A00E9
:100B20000DF10A02204678210223FFF77FFD4FF4E2
:100B30002140ADF80A000DF10A0220467821022377
:100B4000FFF774FD4FF42640ADF80A000DF10A02DC
:100B5000204678210223FFF769FD4FF42840ADF8C5
:100B60000A000DF10A02204678210223FFF75EFDFC
:100B70004FF47C50ADF80A000DF10A0220467821AE
:100B80000223FFF753FD4FF42440ADF80A000DF1A6
:100B90000A02204678210223FFF748FD4FF4534014
:100BA000ADF80A000DF10A02204678210223FFF772
:100BB0003DFD0DF10A02204678210223ADF80A50CE
:100BC000FFF734FD4FF45540ADF80A000DF10A026D
:100BD000204678210223FFF729FD4FF47040ADF83D
:100BE0000A000DF10A02204678210223FFF71EFDBC
:100BF0004FF45940ADF80A000DF10A022046782161
:100C00000223FFF713FD4FF40850ADF80A000DF171
:100C10000A02204678210223FFF708FD4FF45A40CC
:100C2000ADF80A000DF10A02204678210223FFF7F1
:100C3000FDFC4FF49050ADF80A000DF10A02204679
:100C400078210223FFF7F2FC4FF45B40ADF80A0075
:100C50000DF10A02204678210223FFF7E7FC0DF18F
:100C60000A02204678210223ADF80A70FFF7DEFC65
:100C70004FF40D40ADF80A000DF10A02204678212C
:100C80000223FFF7D3FC4FF4A050ADF80A000DF19A
:100C90000A02204678210223FFF7C8FC01203070A9
:100CA0004FF42F40ADF80A000DF10A0220467821DA
:100CB0000223FFF7BBFC40F27000C2F200004FF4C9
:100CC0008061FFF75AFB00F019F840F26800C2F2A9
:100CD0000000058040F26A00C2F20000058003B007
:100CE000F0BD000040F26802C2F20002108040F243
:100CF0006A00C2F200000180704700002DE9F04F49
:100D0000ADF2044D40F2700045F20044C2F2000022
:100D10000DF10306C4F20004A0F1800506F1010BF9
:100D20004FF000084FF480594FF0400A002700BFF1
:100D300047F0B0008DF804002046782132460223A7
:100D40008DF80380FFF772FC20467821324602239B
:100D5000ADF80380FFF76AFC204678213246022373
:100D6000ADF80390FFF762FC803558462946802293
:100D70008DF803A0FFF7B4FA20467821324681238C
:100D8000FFF754FC0137082FD2D10DF2044D00F0CB
:100D900000B830BCBDE8C08F2DE9F04F84B0A0F1A1
:100DA0007F0717F15F0F14D340F26807C2F2000704
:100DB000B7F800E05EFA81F7802F0AD840F26A07A0
:100DC000C2F200073E880F0A029656FA87F6402EB6
:100DD00003D9002004B000F063B80090F8B20028F6
:100DE000C9B2039051D000984FF0000CA0F1200739
:100DF0000398474302EB470040F27007C2F2000736
:100E0000019004E003980CF1010C84453DD00029C9
:100E1000F8D001984FF0000A30F81C2002980CEB33
:100E2000000505F007060120B0404FF46076ECB2F3
:100E300080F0FF0806EA05190AE000BF4BEA090541
:100E40007E5D06EA08067E550AF1010A5145D9D0B1
:100E50000EEB0A0502FA0AF65FFA85FB360405F086
:100E6000800507D53F2CEFD8002DEDD1012BE5D122
:100E700006E000BF3F2CE7D8002DE5D1002BDDD1E7
:100E80004BEA09057E5D0643DDE70EEB010040F20B
:100E90006801C2F2000108805DF8100B00F000B894
:100EA00030BCBDE8C08F0000F0B581B01C460378AF
:100EB00083B115460E46471CD8B231462A46234612
:100EC000FFF76AFF17F8011C884204D117F8013BAD
:100ED000002BF1D10021084601B0F0BDF1EE100A5F
:100EE0004FF6FF71C0F2C03120EA010040F04070BF
:100EF000E1EE100A70470000000000000000000052
:100F000000000000000000000000000000000000E1
:100F1000000000000000000000000000000C000CB9
:100F2000000C000C000C000C000C000C000C000C61
:100F3000000C0000000C000C00000000000000008D
:100F4000001B001B001B001B001B0000000000001A
:100F50000000000000000000000000000000000091
:100F6000000000008019801980198019C07FC07F9F
:100F700080190033C07FC07F00330033003300335B
:100F80000000000000000000001E003F807580652A
:100F90000074003C001E0007800580658065807538
:100FA000003F001E0004000400000000007000D894
:100FB00040D8C0D880D900730006000C801BC03612
:100FC000C066C046C00680030000000000000000AC
:100FD000001E003F003300330033001E000CC03CF5
:100FE000C066806380618063C03E801C000000009A
:100FF00000000000000C000C000C000C000C0000B5
:1010000000000000000000000000000000000000E0
:101010000000000000008000000100030006000640
:101020000004000C000C000C000C000C000C000470
:1010300000060006000300018000002000100018D8
:10104000000C000C00040006000600060006000666
:1010500000060004000C000C001800100020000026
:10106000000C002D003F001E0033000000000000B7
:101070000000000000000000000000000000000070
:101080000000000000000000000C000C000C000C30
:10109000C0FFC0FF000C000C000C000C00000000A2
:1010A0000000000000000000000000000000000040
:1010B0000000000000000000000000000000000030
:1010C000000C000C000400040008000000000000F8
:1010D000000000000000000000000000001E001ED4
:1010E0000000000000000000000000000000000000
:1010F00000000000000000000000000000000000F0
:101100000000000000000000000C000C00000000C7
:1011100000000000000300030003000600060006B4
:101120000006000C000C000C000C00180018001841
:101130000000000000000000001E003F003380613E
:1011400080618061806D806D80618061806100332D
:10115000003F001E00000000000000000006000E1E
:10116000001E0036002600060006000600060006E7
:101170000006000600060006000000000000000057
:10118000001E003F807380618061800100030006C3
:10119000000C001800300060807F807F000000009D
:1011A00000000000001C003E006300630003000E0E
:1011B000000E00038001800180618073003F001EEB
:1011C00000000000000000000006000E000E001EDF
:1011D000001E0016003600360066807F807F000605
:1011E000000600060000000000000000007F007FF5
:1011F000006000600060006E007F806380018001FD
:1012000080618073003F001E0000000000000000AD
:10121000001E003F803380610060006E007F80739D
:101220008061806180618033003F001E000000000B
:1012300000000000807F807F800100030003000623
:101240000006000C000C000C000800180018001824
:101250000000000000000000001E003F806380616D
:1012600080610021001E003F80618061806180619B
:10127000003F001E0000000000000000001E003FB4
:1012800000738061806180618073803F801D800178
:1012900080610073003F001E00000000000000009D
:1012A0000000000000000000000C000C0000000026
:1012B0000000000000000000000C000C0000000016
:1012C0000000000000000000000000000000000C12
:1012D000000C00000000000000000000000C000CEA
:1012E000000400040008000000000000000080006E
:1012F0008003000E003800600038000E800380007C
:1013000000000000000000000000000000000000DD
:1013100000000000807F807F00000000807F807FD1
:1013200000000000000000000000000000000000BD
:1013300000000000000000400070001C0007800159
:101340000007001C007000400000000000000000CA
:1013500000000000001F803FC071C060C000C001DD
:1013600080030007000E000C000C0000000C000CB5
:101370000000000000000000001E003F803180716E
:101380008063806F806D806D806F80670060003249
:10139000003E001C0000000000000000000E000ED7
:1013A000001B001B001B001B80318031803F803FF1
:1013B0008031C060C060C06000000000000000001C
:1013C000007C007E0063006300630063007E007E9B
:1013D0000063806180618063007F007E0000000008
:1013E00000000000001E003F80318061006000604E
:1013F000006000600060006080618031003F001E7E
:101400000000000000000000007C007F006380639B
:1014100080618061806180618061806100630063C0
:10142000007E007C0000000000000000807F807FC4
:101430000060006000600060007F007F006000606E
:1014400000600060807F807F0000000000000000DE
:10145000807F807F0060006000600060007F007F10
:10146000006000600060006000600060000000003C
:1014700000000000001E003F8031806100600060BD
:10148000006080638063806180618031803F001EE6
:1014900000000000000000008061806180618061C8
:1014A00080618061807F807F8061806180618061F8
:1014B000806180610000000000000000003F003FEC
:1014C000000C000C000C000C000C000C000C000CBC
:1014D000000C000C003F003F000000000000000076
:1014E00080018001800180018001800180018001F4
:1014F0008001806180618073003F001E0000000059
:1015000000000000C0608061006300660066006C3F
:101510000078007C00660066006380618061C060C6
:10152000000000000000000000600060006000603B
:1015300000600060006000600060006000600060AB
:10154000807F807F0000000000000000C071C0713B
:10155000C07BC07AC06AC06AC06EC064C060C06030
:10156000C060C060C060C0600000000000000000FB
:1015700080718071807980798079806D806D806DD7
:1015800080658067806780678063806300000000FB
:1015900000000000001E003F003380618061806118
:1015A000806180618061806180610033003F001E46
:1015B0000000000000000000007E007F806380616A
:1015C000806180618063007F007E00600060006059
:1015D000006000600000000000000000001E003FEE
:1015E000003380618061806180618061806180659D
:1015F00080670033803F401E0000000000000000B4
:10160000007E007F8063806180618063007F007E58
:1016100000660063006380618061C06000000000BC
:1016200000000000000E001F8031803100300038C3
:10163000001E00078003806180618031003F001E32
:101640000000000000000000C0FFC0FF000C000C04
:10165000000C000C000C000C000C000C000C000C2A
:10166000000C000C000000000000000080618061A0
:101670008061806180618061806180618061806162
:1016800080618073003F001E000000000000000029
:10169000C060C060C060803180318031001B001BA1
:1016A000001B001B000E000E000E000400000000D6
:1016B00000000000C0C0C0C0C0C0C0C0C0C0C0CC1E
:1016C000804C804C805E805280528073806180614B
:1016D0000000000000000000C0C080608061003396
:1016E000003B001E000C000C001E001F003B807120
:1016F0008061C0C00000000000000000C0C0806128
:10170000806100330033001E001E000C000C000C32
:10171000000C000C000C000C000000000000000099
:10172000803F803F8001000300030006000C000C96
:101730000018001800300060807F807F00000000EB
:101740000000000F000F000C000C000C000C000C3F
:10175000000C000C000C000C000C000C000C000C29
:10176000000C000F000F0000001800180018000CFB
:10177000000C000C000C000600060006000600032A
:1017800000030003000000000000001E001E000611
:101790000006000600060006000600060006000619
:1017A00000060006000600060006001E001E0000DF
:1017B000000C000C001E00120033003380618061B9
:1017C0000000000000000000000000000000000019
:1017D0000000000000000000000000000000000009
:1017E00000000000000000000000000000000000F9
:1017F0000000E0FF0000000000380018000C0000AE
:1018000000000000000000000000000000000000D8
:1018100000000000000000000000000000000000C8
:1018200000000000001F803F80618001801F803F1A
:1018300080618063807FC0380000000000000000ED
:101840000060006000600060006E007F8073806157
:101850008061806180618073007F006E0000000005
:10186000000000000000000000000000001E003F1B
:10187000807380610060006080618073003F001EA3
:101880000000000000000000800180018001800154
:10189000801D803F80738061806180618061807382
:1018A000803F801D000000000000000000000000DC
:1018B00000000000001E003F00738061807F807F79
:1018C00000608071003F001E00000000000000006A
:1018D000C007C00F000C000C807F807F000C000C44
:1018E000000C000C000C000C000C000C00000000B0
:1018F00000000000000000000000801D803F807399
:1019000080618061806180618073803F801D800183
:101910008063007F003E00000060006000600060A7
:10192000006F807F807180618061806180618061F3
:1019300080618061000000000000000000060006D9
:1019400000000000003E003E000600060006000603
:101950000006000600060006000000000000000669
:10196000000600000000003E003E000600060006E3
:101970000006000600060006000600060046007E7F
:10198000003C000000600060006000608061006357
:101990000066006C007C0076006300638061C060BC
:1019A0000000000000000000003E003E00060006AF
:1019B00000060006000600060006000600060006F7
:1019C000000600060000000000000000000000000B
:1019D0000000000080DDC0FFC0CEC0CCC0CCC0CCB9
:1019E000C0CCC0CCC0CCC0CC0000000000000000C7
:1019F0000000000000000000006F807F80718061A7
:101A00008061806180618061806180610000000090
:101A1000000000000000000000000000001E003F69
:101A2000807380618061806180618073003F001EEF
:101A30000000000000000000000000000000006E38
:101A4000007F807380618061806180618073007F2E
:101A5000006E006000600060006000000000000098
:101A60000000801D803F80738061806180618061A3
:101A70008073803F801D8001800180018001000013
:101A800000000000000000000067803F00390030C7
:101A90000030003000300030003000300000000026
:101AA000000000000000000000000000001E803F59
:101AB00080610060007F803F80018061007F001EA8
:101AC00000000000000000000000000800180018DE
:101AD000007F007F00180018001800180018001878
:101AE000801F800F000000000000000000000000C8
:101AF00000000000806180618061806180618061A0
:101B000080618063807F803D000000000000000055
:101B10000000000000000000C06080318031803192
:101B2000001B001B001B000E000E00060000000042
:101B300000000000000000000000000080DD80DDEB
:101B400080DD005500550055007700770022002207
:101B50000000000000000000000000000000000085
:101B6000806100330033001E000C000C001E0033A7
:101B70000033806100000000000000000000000051
:101B8000000080618061803100330033001B001B46
:101B9000001B000E000E000E001C007C00700000F8
:101BA0000000000000000000C07FC07F8001000333
:101BB0000006000C00180030C07FC07F000000004D
:101BC00000008003800700060006000600060006ED
:101BD000000E001C001C000E000600060006000699
:101BE00000068007800300060006000600060006C7
:101BF00000060006000600060006000600060006B5
:101C0000000600060006000600060038003C000C36
:101C1000000C000C000C000C000E00070007000E6A
:101C2000000C000C000C000C000C003C0038000004
:101C30000000000000000000000000008038807FED
:101C4000004700000000000000000000000000004D
:101C500000003132334134353642373839432A3087
:101C600023440000881C0008000000200800000039
:101C7000EC010008901C000808000020680A000021
:101C80000C020008000000000B120000F60E000815
:040000050800018965
:00000001FF
